:020000040000FA
:10000000FC0D0020510100005501000057010000C7
:1000100000000000000000000000000000000000E0
:100020000000000000000000000000005901000076
:1000300000000000000000005B0100005D01000006
:100040005F0100005F0100005F0100005F01000030
:100050005F0100005F0100005F0100005F01000020
:100060005F0100005F0100005F0100005F01000010
:100070005F0100005F0100005F0100005F01000000
:100080005F0100005F0100005F0100005F010000F0
:100090005F0100005F0100005F0100005F010000E0
:1000A0005F0100005F0100005F0100005F010000D0
:1000B0005F0100005F0100005F0100005F010000C0
:1000C00000F002F800F032F80CA030C8083824180C
:1000D0002D18A246671EAB4654465D46AC4201D180
:1000E00000F024F87E460F3E0FCCB6460126334280
:1000F00000D0FB1AA246AB4633431847E800000085
:10010000F80000000023002400250026103A01D347
:1001100078C1FBD8520700D330C100D50B607047BF
:100120001FB5C046C0461FBD10B510BD00F029F870
:100130001146FFF7F5FF00F008F800F041F803B4AE
:10014000FFF7F2FF03BC00F045F800207047000005
:1001500006480047FEE7FEE7FEE7FEE7FEE7FEE7AC
:1001600003480449024A044B70470000C1000000E4
:10017000600000206002002060000020704770478F
:100180007047754600F022F8AE46050069465346B2
:10019000C008C000854618B020B5FFF7E1FF60BC7D
:1001A00000274908B6460026C0C5C0C5C0C5C0C5A1
:1001B000C0C5C0C5C0C5C0C5403D49008D467047DB
:1001C0000446C046C0462046FFF7B9FF00487047C6
:1001D0000000002001491820ABBEFEE72600020007
:1001E00070470000F40100000000002060020000E1
:0401F0000401000006
:0400000500000151A5
:00000001FF
